:100000000C9463000C948B000C948B000C948B006C
:100010000C948B000C948B000C948B000C948B0034
:100020000C948B000C948B000C948B000C948B0024
:100030000C948B000C948B000C948B000C948B0014
:100040000C948B000C9442060C941C060C948B00B0
:100050000C948B000C948B000C948B000C948B00F4
:100060000C948B000C9410050C94F6050C94D005A0
:100070000C948B000C948B000C948B000C94AA05B0
:100080000C9484050C948B000C948B000C948B00C6
:100090000C948B000C945E050C9438050C948B002A
:1000A000496E636F6D706C657465206F72206D6151
:1000B0006C666F726D656420636865636B73756DE4
:1000C00000006806B70911241FBECFEFCDBFDFE3E4
:1000D000DEBF2AE2A6E0B8E201C01D92AC39B20749
:1000E000E1F718E2A0E0B8E2EDE9FBE102C005901B
:1000F0000D92A630B107D9F710E0C2E6D0E004C0F7
:100100002197FE010E94600BC136D107C9F70E94FA
:100110001D070C945D0D0C940000CF93DF9390E0CD
:10012000FC01E15BF44A20812F3F69F0FC01EA5DAC
:10013000F44AA08130E2A39FD0011124BC5F61305A
:1001400029F411962C93DF91CF9108958350954A0D
:10015000EC01E881EF3F81F0CD014096E80FF92FE7
:10016000F11D9FB7F89412962C938081623039F478
:10017000886080839FBFE7CFF0E0E0E0F2CF877F29
:10018000F8CF90E0FC01EC52F54AE081EE2319F142
:10019000E13021F000F1E630A8F008958350954A4F
:1001A000FC012081233008F02F5F3091010A81E0AB
:1001B00090E001C0880F2A95EAF780958323809309
:1001C000010A089580E1E89FF0011124E05AF54FFB
:1001D00081818F7E818308950F931F93CF93DF9347
:1001E000C82FD0E0FE01E15BF44A00810F3FA1F08F
:1001F000162F893210F40E94C100FE01EA5DF44A14
:10020000E08180E2E89FF0011124FC5F808180237F
:1002100051F0111106C00683DF91CF911F910F910C
:1002200008950583F9CFC350D54A8881309771F07E
:100230008F3F61F07096E80FF11D9FB7F8948081B1
:10024000111107C0877F80839FBFE6CFF0E0E0E019
:10025000F4CF8860F8CF893210F40C94EC00089544
:100260000F931F93CF93082F10E0F801E15BF44A3E
:10027000C081CF3F79F00E94C100F801EA5DF44AE5
:10028000E08180E2E89FF0011124FC5F8085C823B3
:1002900081E009F480E0CF911F910F910895EF92D2
:1002A000FF921F93CF93DF93E82EF12CF701E350D9
:1002B000F54AC081CF3F79F1162FD82F61E00E9417
:1002C0008D00F701EC52F54AE081E13061F010F069
:1002D000E63050F160E08D2FDF91CF911F91FF90BC
:1002E000EF900C942B01EC2FF0E0EE0FFF1FC330CA
:1002F000C0F0ED5DF54FCF5F8FB7F89410838FBFDF
:100300008091010A21E030E001C0220FCA95EAF78E
:10031000822B8093010ADF91CF911F91FF90EF9084
:100320000895E85DF54FE8CF80E1E89FF0011124E2
:10033000E05AF54F8FB7F8949485948715878FBF4F
:10034000818180618183E7CF6FB7F89420910A287B
:1003500030910B2840910C2850910D288091AA0AC9
:100360009091AB0A7091A60A70FF08C02F5F3F4FB3
:100370004F4F5F4F8091AA0A9091AB0A6FBFE92F50
:10038000FF27BC01A4E076956795AA95E1F7E60FF3
:10039000F71FBC01B6E076956795BA95E1F7E61BC5
:1003A000F70B892F992786958695E81BF90BA8EE00
:1003B000B3E00E94EE0A6E0F7F1F811D911D08950C
:1003C000AF92BF92CF92DF92EF92FF920F931F9363
:1003D000CF93DF936C017B018B01040F151FEB01A1
:1003E0005E01AE18BF08C017D10759F06991D60158
:1003F000ED91FC910190F081E02DC6010995892BCA
:1004000079F7C501DF91CF911F910F91FF90EF9088
:10041000DF90CF90BF90AF90089541E050E066E943
:100420007BE50C94E001FB01448155816081718181
:100430000C94E001FC01A485B58511968C9111976F
:1004400081FD0FC09C9186898F5F8F732789281744
:1004500049F0A689AE0FBF2FB11D5D969C93868B88
:1004600008958C910895FC01508D418D252F30E029
:10047000842F90E0821B930B541710F0CF960895B1
:1004800001970895FC0196898789981761F0A789DB
:10049000AE0FBF2FB11D5D968C9197899F5F9F73A3
:1004A000978B90E008958FEF9FEF0895FC01968958
:1004B0008789981731F08789E80FF11D858D90E0C5
:1004C00008958FEF9FEF0895FC0196892789892F62
:1004D00090E0805C9F4F821B91098F73992708954C
:1004E0008EE098E20E94640221E0892B09F420E06A
:1004F000822F08958BEA98E20E94640221E0892B02
:1005000009F420E0822F089588E499E20E946402B1
:1005100021E0892B09F420E0822F089585EE99E2ED
:100520000E94640221E0892B09F420E0822F0895C3
:10053000CF93DF93EC01E881F9810680F781E02D0C
:100540000995EC85FD8586818F738683EC85FD8515
:1005500085818F7585838F898E8B1D8ADF91CF91E1
:100560000895AF92BF92CF92DF92EF92FF920F93D6
:100570001F93CF93DF93EC016A017B01A22E8D893B
:10058000882339F0E881F9810688F789E02DCE01CA
:1005900009950C8910E0BFB6F89460E078E689E828
:1005A00099E0A70196010E94CC0A69017A018FEFB8
:1005B000C81AD80AE80AF80AF694E794D794C794B8
:1005C000EC85FD8586818D7F8683EC85FD85868122
:1005D00086831D8AA09125110A2E000CBB0BA70152
:1005E00096010E94580B20E034E040E050E00E9469
:1005F000390BEC85FD85C20ED31EE41EF51EC086A8
:10060000D186EC85FD85A782EC85FD858681806C91
:100610008683EC85FD858581806885839091E205E0
:100620008B89809589237801EE0CFF1CF701E00F80
:10063000F11FEC0FFD1F9089892B8093E2058685C1
:10064000893218F462E00E948D000E0D1F1DC00F4C
:10065000D11F61E08F850E942B018F85893218F4AC
:1006600061E00E948D00BFBEDF91CF911F910F917D
:10067000FF90EF90DF90CF90BF90AF900895FC0176
:10068000613019F4648B81E00895148A6623D9F3EC
:1006900080E00895DC0154961C92549754968C91F6
:1006A00054978230A0F4282F30E0F901EE0FFF1F9D
:1006B000E20FF31FEA0FFB1F9785961303C0968581
:1006C000941749F08F5F54968C935497E7CF5496C4
:1006D0001C9280E0089581E00895CF93DF93FC01A0
:1006E000908D818DC485D585981306C08D818F7DB1
:1006F0008D83DF91CF910895A18DAE0FBF2FB11DD6
:10070000A35ABF4F2C91818D90E001968F7399274A
:10071000818F80E48C83A485B58512962C93908D6F
:10072000818D9813E6CFA485B58515968C91159784
:100730008F7D15968C93838D8823D9F2848D809339
:100740001301138ED6CFDC011C96ED91FC910FB6F0
:1007500007FE03C0258125FD04C0248125FD0C94DE
:100760006D030895EF92FF920F931F93CF93DF9342
:10077000EC0181E08D8B988D898D98131CC0AC8520
:10078000BD8514968C91149785FF15C012966C93B5
:10079000AC85BD8580E414968C93EC85FD858581C0
:1007A0008F7D858381E090E0DF91CF911F910F9144
:1007B000FF90EF9008958091110180FF08C0809113
:1007C00013018C8F8A8D8093130181E08B8FF62E1D
:1007D000088D10E00F5F1F4F0F731127E02E898DDA
:1007E0008E1104C0CE010E94A303F9CFE88DEC0F57
:1007F000FD2FF11DE35AFF4FF082088FEC85FD8538
:1008000085818062CECFCF93DF93FC01258922239F
:10081000C9F0EC018091110180FF08C080911301A3
:10082000848F828D8093130181E0838FEC85FD8519
:10083000858185FD03C0848186FD04C0CE010E94B0
:10084000A303F4CFDF91CF91089580E090E0892B4E
:1008500029F00E948E0281110E94000080E090E049
:10086000892B29F00E94840281110E94000080E0FF
:1008700090E0892B29F00E947A0281110E940000E9
:1008800080E090E0892B29F00E94700281110C9485
:100890000000089581E00895DC01ED91FC91048849
:1008A000F589E02D23E030E009940F931F93CF9357
:1008B000DF93EC0188819981009759F02A813B816F
:1008C0002617370730F081E0DF91CF911F910F910C
:1008D00008958B016F5F7F4F0E948B0C009759F03A
:1008E000888399830A831B832C813D81232B59F7AD
:1008F000FC011082E8CF80E0E7CFEF92FF920F93E8
:100900001F93CF93DF93EC017B01FB01019000204B
:10091000E9F731978F01061B170BB8010E945504A8
:1009200028813981811113C02115310519F0C901C0
:100930000E94020C188219821C821D821A821B825C
:10094000DF91CF911F910F91FF90EF9008950C834D
:100950001D83B701C901DF91CF911F910F91FF90C6
:10096000EF900C94560D8091852A882371F06CE9E4
:100970007BE588E89AE20E947D041092852A68E966
:100980007BE58EE89AE20C947D040895CF93DF9383
:10099000EC0170E060E00E945504288139818111EA
:1009A0000FC02115310519F0C9010E94020C1882EF
:1009B00019821C821D821A821B82DF91CF910895B9
:1009C0001C821D826CE97BE5C901DF91CF910C94FB
:1009D000560DEF92FF920F931F93CF93DF93411524
:1009E0005105B1F07B01EC010C811D81040F151F35
:1009F000B8010E945504882361F0288139818C81D7
:100A00009D81B701820F931F0E94560D0C831D8399
:100A100081E0DF91CF911F910F91FF90EF900895AA
:100A20001F920F920FB60F9211248F939F93AF9343
:100A3000BF9380910A2890910B28A0910C28B09127
:100A40000D280196A11DB11D80930A2890930B28B3
:100A5000A0930C28B0930D2881E08093A60ABF9143
:100A6000AF919F918F910F900FBE0F901F9018958F
:100A70001F920F920FB60F9211242F933F934F9313
:100A80005F936F937F938F939F93AF93BF93EF93F6
:100A9000FF938EE098E20E946D03FF91EF91BF916A
:100AA000AF919F918F917F916F915F914F913F9106
:100AB0002F910F900FBE0F901F9018951F920F92BD
:100AC0000FB60F9211242F933F934F935F936F9321
:100AD0007F938F939F93AF93BF93EF93FF938EE09A
:100AE00098E20E941A02FF91EF91BF91AF919F91FE
:100AF0008F917F916F915F914F913F912F910F90C7
:100B00000FBE0F901F9018951F920F920FB60F9265
:100B100011242F933F934F935F936F937F938F9302
:100B20009F93AF93BF93EF93FF938BEA98E20E945A
:100B30006D03FF91EF91BF91AF919F918F917F9145
:100B40006F915F914F913F912F910F900FBE0F903A
:100B50001F9018951F920F920FB60F9211242F938A
:100B60003F934F935F936F937F938F939F93AF9335
:100B7000BF93EF93FF938BEA98E20E941A02FF91D2
:100B8000EF91BF91AF919F918F917F916F915F9105
:100B90004F913F912F910F900FBE0F901F9018957E
:100BA0001F920F920FB60F9211242F933F934F93E2
:100BB0005F936F937F938F939F93AF93BF93EF93C5
:100BC000FF9388E499E20E946D03FF91EF91BF913A
:100BD000AF919F918F917F916F915F914F913F91D5
:100BE0002F910F900FBE0F901F9018951F920F928C
:100BF0000FB60F9211242F933F934F935F936F93F0
:100C00007F938F939F93AF93BF93EF93FF9388E46A
:100C100099E20E941A02FF91EF91BF91AF919F91CB
:100C20008F917F916F915F914F913F912F910F9095
:100C30000FBE0F901F9018951F920F920FB60F9234
:100C400011242F933F934F935F936F937F938F93D1
:100C50009F93AF93BF93EF93FF9385EE99E20E942A
:100C60006D03FF91EF91BF91AF919F918F917F9114
:100C70006F915F914F913F912F910F900FBE0F9009
:100C80001F9018951F920F920FB60F9211242F9359
:100C90003F934F935F936F937F938F939F93AF9304
:100CA000BF93EF93FF9385EE99E20E941A02FF91A2
:100CB000EF91BF91AF919F918F917F916F915F91D4
:100CC0004F913F912F910F900FBE0F901F9018954D
:100CD000CF93DF93EEE0F8E21282138248EE53E006
:100CE00060E070E044835583668377838CE79BE5FF
:100CF0008083918320E638E02487358729E02687A2
:100D000028E02787108A2DE0218B2CE0228B20E41D
:100D1000238B148A158A168A178A108E118E26E262
:100D2000228F138E148EEBEAF8E212821382448330
:100D300055836683778380839183A0E4B8E0A4879A
:100D4000B58733E2368732E23787108A37E2318B54
:100D5000228B20E1238B148A158A168A178A108E1B
:100D6000118E20E2228F138E148EE8E4F9E21282B3
:100D7000138244835583668377838083918320E243
:100D800038E0248735872FE026872EE02787108AD2
:100D900023E1218B22E1228B34E0338B148A158AE4
:100DA000168A178A108E118EABE1A28F138E148EC5
:100DB000E5EEF9E2128213824483558366837783DA
:100DC0008083918380E098E08487958781E086879F
:100DD0001786108A95E0918B328B838B148A158A43
:100DE000168A178A108E118E228F138E148EC2E8E7
:100DF000DAE2E883F9838AE08A831C821D821E82FC
:100E00001F82188619861A861B8688E89AE20E9435
:100E1000C6041C861D861E861F86188A198A8EE8BF
:100E20009AE20E94C60461E08AE00E948D0060E0C0
:100E30008AE0DF91CF910C94EC00CF93DF93CDB794
:100E4000DEB72B97CDBFDEBF88ED90E084BF9093D7
:100E50006100809102068660809302068091000600
:100E6000816080930006809102068F7C806580936C
:100E700002061092E20582E08093E40581E080930F
:100E8000030A8EEF8093270A8093260A80E88093D6
:100E90002D0A80932B0A8093290A80932C0A809331
:100EA0002A0A8093280A8BE08093000A87E08093C7
:100EB000E505E0E8FAE037E02EEF90E885E03183E1
:100EC0002487958780837096E03C4AE0F407B9F761
:100ED0001092A10A8FE19EE48093AC0A9093AD0A30
:100EE0008091A50A81608093A50A1092A00A809142
:100EF000A00A81608093A00A789461E080E10E945A
:100F00008D0060E08BE00E948D0061E081E10E9435
:100F10008D0060E086E10E948D0061E083E10E9427
:100F20008D0060E087E10E948D0061E082E10E9417
:100F30008D0060E170E080E10E944F0160E470E0AC
:100F400081E10E944F0160E470E083E10E944F0163
:100F500060E470E082E10E944F010E94A4014B0115
:100F60005C01A0E88A0EA4E89A1EAEE1AA1EB11C9C
:100F7000B0E88B16B4E89B06BEE1AB06B10438F4CA
:100F80000E94A40186169706A806B906C8F30E9417
:100F9000A401681579058A059B05C8F360E080E126
:100FA0000E94EC0023E030E040E052EC61E070E0B1
:100FB00085EE99E20E94B1028091110480688093CD
:100FC000110423E030E040E052EC61E070E088E49E
:100FD00099E20E94B102809150048068809350048D
:100FE00023E030E040E052EC61E070E08BEA98E210
:100FF0000E94B1028091B00480688093B00423E025
:1010000030E040E052EC61E070E08EE098E20E9457
:10101000B1028091300480688093300461E0809157
:10102000842A0E942B0181E08093872A1092862ACD
:101030008E01065F1F4F6E01E5E0CE0ED11CA3E0CE
:101040008A2EB2E07B2E2FB7F89480910A289091D7
:101050000B28A0910C28B0910D282FBF8093062853
:1010600090930728A0930828B09309288BE00E944A
:101070003001813009F011C160E470E081E10E942B
:101080004F0186E10E943001813009F00BC160E41C
:1010900070E083E10E944F0187E10E9430018130BE
:1010A00009F005C160E470E082E10E944F019924DB
:1010B00093948091822A9091832ADC01ED91FC9196
:1010C0002091872A233009F0F7C00084F185E02DB4
:1010D0000995049708F473C05E01B6E0AB0EB11C2D
:1010E0008091822A9091832ADC01ED91FC91028407
:1010F000F385E02D0995F50181935F0189831A82BB
:1011000041E050E0BE016F5F7F4F8EE89AE20E949F
:10111000E9040A151B0521F742E050E06AE97BE586
:101120008EE89AE20E94E9048E819F81A885B985A4
:1011300089839A83AB83BC831D8240E150E0B80170
:10114000CE0101960E94C5092A853B8580EA90E080
:101150002C153D0519F47B0190E080E09092872AE0
:10116000892B09F0A6CF8091942A9091952A8E150B
:101170009F0509F09ECF9092852A8091862A882328
:10118000F1F060E08091842A0E942B011092872A5E
:101190008091852A811106C06CE97BE588E89AE296
:1011A0000E947D048091822A9091832ADC01ED9136
:1011B000FC910284F385E02D099597FFF3CF809190
:1011C000852A882309F466C060E170E080E10E940E
:1011D0004F018BE00E943001813081F488E499E274
:1011E0000E940D0268E87AE288E499E20E94130204
:1011F0006EE87AE288E499E20E94130286E10E9496
:101200003001813081F48BEA98E20E940D0268E897
:101210007AE28BEA98E20E9413026EE87AE28BEAA5
:1012200098E20E94130287E10E943001813081F42C
:101230008EE098E20E940D0268E87AE28EE098E281
:101240000E9413026EE87AE28EE098E20E94130296
:101250000E94B3048FB7F89440910A2850910B284C
:1012600060910C2870910D288FBF80910628909175
:101270000728A0910828B09109288C599F4FAF4F9B
:10128000BF4F481759076A077B0720F360E080E1EA
:101290000E94EC000E942504D6CE60E081E10E940D
:1012A000EC00EFCE60E083E10E94EC00F5CE60E060
:1012B00082E10E94EC00FBCE0284F385E02D0995CB
:1012C00097FD7DCF2091872A223021F1233009F428
:1012D0004CC0213009F0EDCE8F9709F0EACE709224
:1012E000872A28E030E08FE290E0AC01417055277A
:1012F00096958795452B21F0B1E08B27B0EA9B2787
:101300002150310991F78093942A9093952A0E9455
:10131000B304CFCE2091942A3091952A282748E013
:1013200050E0B9016170772736952795672B21F03A
:10133000E1E02E27E0EA3E274150510991F7209342
:10134000942A3093952A8132910519F48092872A44
:10135000B0CE89831A8241E050E0BE016F5F7F4FBB
:1013600088E89AE20E94E904A4CE0E94480DCF9337
:10137000DF93C2E8DAE28C859D850E94020C8E81A3
:101380009F81DF91CF910C94020CB0E0A0E0EBECD8
:10139000F9E00C94FA0A5C016B017A0161157105A0
:1013A00019F0FB0180839183E114F10449F0C70136
:1013B0000297839728F060E070E0CB019CC05E014B
:1013C000E5012196F5011081812F90E00E94B00A7D
:1013D000892BA9F71D3209F056C02196F50111811C
:1013E00001E0E114F10409F4AEC0F0E1EF16F104FC
:1013F00009F08EC0103341F488818F7D883509F063
:1014000083C0198122960260E0E1EE2EF12C88243F
:101410008A94982CA82CFFE0BF2E20E060E070E0BA
:10142000CB0127010F2C000C66087708FE0150ED58
:10143000352E310E39E0331538F43FEB310F3A31A8
:10144000A0F549EC342E310E3E141F04BCF52F3F9D
:10145000B9F086169706A806B90670F1A3019201A5
:101460000E94BC0A232D30E050E040E0620F731F61
:10147000841F951F6217730784079507E8F021E022
:1014800021961081D3CF1B3221F4E5012296F5017C
:10149000118100E0A6CF78E0E72EF12C88248A9411
:1014A000982CA82C6FE1B62EB8CF3FE9310F3A3116
:1014B00028F439EA332EC7CF2FEFE2CFC114D1047D
:1014C00031F02223E9F02197F601C083D18300FF98
:1014D00007C090958095709561957F4F8F4F9F4F76
:1014E0002F3F49F482E290E08093962A9093972AC6
:1014F0006FEF7FEFCB01CDB7DEB7E1E10C94130BBB
:1015000001FFE5CF2297E0CF10E3E114F10419F2D7
:101510003AE0E316F104E9F080E1E816F10409F499
:1015200073CFE8E0EE16F10409F4B8CF6FEF7FEF68
:10153000CB0197010F2C000C440B550B0E94CC0AD9
:1015400049015A016ACF103309F456CF9AE0E92EC7
:10155000F12C89E9882E982CA82C89E1B82E5DCF32
:1015600091110C94B90A803219F089508550C8F74E
:101570000895992788270895DB018F939F930E94F0
:10158000EE0ABF91AF91A29F800D911DA39F900D78
:10159000B29F900D11240895A1E21A2EAA1BBB1B25
:1015A000FD010DC0AA1FBB1FEE1FFF1FA217B3072F
:1015B000E407F50720F0A21BB30BE40BF50B661F45
:1015C000771F881F991F1A9469F760957095809509
:1015D00090959B01AC01BD01CF0108950E942A0B9B
:1015E000A59F900DB49F900DA49F800D911D112477
:1015F00008952F923F924F925F926F927F928F92B7
:101600009F92AF92BF92CF92DF92EF92FF920F9391
:101610001F93CF93DF93CDB7DEB7CA1BDB0BCDBFD4
:10162000DEBF09942A88398848885F846E847D8467
:101630008C849B84AA84B984C884DF80EE80FD807A
:101640000C811B81AA81B981CE0FD11DCDBFDEBF18
:10165000ED010895A29FB001B39FC001A39F700D3B
:10166000811D1124911DB29F700D811D1124911DAA
:101670000895052E97FB1EF400940E94500B57FD11
:1016800007D00E94CC0A07FC03D04EF40C94500BF8
:1016900050954095309521953F4F4F4F5F4F08959E
:1016A00090958095709561957F4F8F4F9F4F0895CE
:1016B000B7FF0C94EE0A0E94EE0A821B930B08956A
:1016C000EE0FFF1F0590F491E02D09940F931F93E7
:1016D000CF93DF938230910510F482E090E0E091A7
:1016E0009A2AF0919B2A30E020E0B0E0A0E0309709
:1016F00099F42115310509F44AC0281B390B24300F
:101700003105D8F58A819B816115710589F1FB014D
:1017100082839383FE0111C0408151810281138134
:1017200048175907E0F04817590799F4109761F0E6
:1017300012960C93129713961C933296CF01DF9159
:10174000CF911F910F91089500939A2A10939B2A8D
:10175000F4CF2115310551F04217530738F0A90194
:10176000DB019A01BD01DF01F801C1CFEF01F9CF23
:1017700080939A2A90939B2ACDCFFE01E20FF31F0C
:10178000819391932250310928833983D7CF2091B7
:10179000982A3091992A232B41F4209102283091E4
:1017A00003282093982A3093992A20910028309179
:1017B00001282115310541F42DB73EB74091042889
:1017C00050910528241B350BE091982AF091992A15
:1017D000E217F307A0F42E1B3F0B2817390778F008
:1017E000AC014E5F5F4F2417350748F04E0F5F1F67
:1017F0004093982A5093992A819391939FCFF0E038
:10180000E0E09CCFCF93DF930097E9F0FC013297A3
:1018100012821382A0919A2AB0919B2AED0130E0A6
:1018200020E01097A1F420813181820F931F209135
:10183000982A3091992A2817390709F061C0E09356
:10184000982AF093992ADF91CF910895EA01CE1753
:10185000DF07E8F54A815B819E0141155105B1F72B
:10186000E901EA83FB8349915991C40FD51FEC1715
:10187000FD0761F4808191810296840F951FE90133
:1018800088839983828193818A839B83F0E0E0E05F
:1018900012968D919C9113970097B9F52D913C91DB
:1018A0001197CD010296820F931F2091982A3091B3
:1018B000992A2817390739F6309751F510929A2A44
:1018C00010929B2AA093982AB093992ABCCFC283E6
:1018D000D38340815181840F951FC817D90761F4C4
:1018E0004E5F5F4F88819981480F591F4083518314
:1018F0008A819B81828393832115310509F0B0CFC2
:10190000E0939A2AF0939B2A9ECFFD01DC01C0CF81
:1019100012821382D7CFB0E0A0E0E1E9FCE00C94A2
:10192000FB0A8C01009751F4CB010E94660B8C01DD
:10193000C801CDB7DEB7E0E10C94140BFC01E60F53
:10194000F71F9C0122503109E217F30708F49DC0EC
:10195000D901CD91DC911197C617D70798F0C53002
:10196000D10530F3CE0104978617970708F3C61BFD
:10197000D70B2297C193D1936D937C93CF010E9493
:10198000020CD6CF5B01AC1ABD0A4C018C0E9D1E19
:10199000A0919A2AB0919B2A512C412CF12CE12C38
:1019A000109731F58091982A9091992A8815990578
:1019B00009F05CC04616570608F058C08091002810
:1019C00090910128009741F48DB79EB7409104286B
:1019D00050910528841B950BE817F90708F055C0AE
:1019E000E093982AF093992AF90160837183A0CF3C
:1019F0008D919C91119712966C90129713967C90F2
:101A00001397A815B90559F56C0142E0C40ED11C15
:101A1000CA14DB0420F1AC014A195B09DA01129601
:101A2000159780F06282738240835183D9016D9350
:101A30007C93E114F10471F0D7011296ED93FC93BD
:101A4000139776CF22968C0F9D1FF9018083918387
:101A5000F301EFCFE0939A2AF0939B2A69CF4816BF
:101A6000590608F42C017D01D3019ACFCB010E94C5
:101A7000660B7C01009749F0AE01B8010E944D0D44
:101A8000C8010E94020C870153CF10E000E050CF44
:101A900081E090E0F8940C945D0DFB01DC0102C044
:101AA00001900D9241505040D8F70895FB01DC01A0
:101AB00001900D920020E1F7089510E0C2E6D0E019
:101AC00004C0FE010E94600B2196C336D107C9F7FE
:041AD000F894FFCFB8
:101AD40000000000000000000000000000050101FB
:101AE40001010101000000000000000000000000EE
:101AF40000000000000002030000010203040506C8
:101B0400070001020304050001020304050607009F
:101B14000102030405060700010203000102030495
:101B240005060000000000000000010101010101A0
:101B34000202020202020202030303030303030379
:101B4400040404040505050505050501020408103F
:101B540020408001020408102001020408102040E3
:101B640080010204081020408001020408010204DC
:101B74000810204000000000B203E0013302030417
:101B84006402420256024A033F034C04B102980223
:091B94004A042F0021000D0A0093
:061B9D0000009C2A8000FC
:00000001FF
